{
  "_format": "hh-sol-artifact-1",
  "contractName": "NFTCollection",
  "sourceName": "contracts/NFTCollection.sol",
  "abi": [
    {
      "inputs": [],
      "stateMutability": "nonpayable",
      "type": "constructor"
    },
    {
      "inputs": [
        {
          "internalType": "address",
          "name": "sender",
          "type": "address"
        },
        {
          "internalType": "uint256",
          "name": "tokenId",
          "type": "uint256"
        },
        {
          "internalType": "address",
          "name": "owner",
          "type": "address"
        }
      ],
      "name": "ERC721IncorrectOwner",
      "type": "error"
    },
    {
      "inputs": [
        {
          "internalType": "address",
          "name": "operator",
          "type": "address"
        },
        {
          "internalType": "uint256",
          "name": "tokenId",
          "type": "uint256"
        }
      ],
      "name": "ERC721InsufficientApproval",
      "type": "error"
    },
    {
      "inputs": [
        {
          "internalType": "address",
          "name": "approver",
          "type": "address"
        }
      ],
      "name": "ERC721InvalidApprover",
      "type": "error"
    },
    {
      "inputs": [
        {
          "internalType": "address",
          "name": "operator",
          "type": "address"
        }
      ],
      "name": "ERC721InvalidOperator",
      "type": "error"
    },
    {
      "inputs": [
        {
          "internalType": "address",
          "name": "owner",
          "type": "address"
        }
      ],
      "name": "ERC721InvalidOwner",
      "type": "error"
    },
    {
      "inputs": [
        {
          "internalType": "address",
          "name": "receiver",
          "type": "address"
        }
      ],
      "name": "ERC721InvalidReceiver",
      "type": "error"
    },
    {
      "inputs": [
        {
          "internalType": "address",
          "name": "sender",
          "type": "address"
        }
      ],
      "name": "ERC721InvalidSender",
      "type": "error"
    },
    {
      "inputs": [
        {
          "internalType": "uint256",
          "name": "tokenId",
          "type": "uint256"
        }
      ],
      "name": "ERC721NonexistentToken",
      "type": "error"
    },
    {
      "inputs": [
        {
          "internalType": "address",
          "name": "owner",
          "type": "address"
        }
      ],
      "name": "OwnableInvalidOwner",
      "type": "error"
    },
    {
      "inputs": [
        {
          "internalType": "address",
          "name": "account",
          "type": "address"
        }
      ],
      "name": "OwnableUnauthorizedAccount",
      "type": "error"
    },
    {
      "anonymous": false,
      "inputs": [
        {
          "indexed": true,
          "internalType": "address",
          "name": "owner",
          "type": "address"
        },
        {
          "indexed": true,
          "internalType": "address",
          "name": "approved",
          "type": "address"
        },
        {
          "indexed": true,
          "internalType": "uint256",
          "name": "tokenId",
          "type": "uint256"
        }
      ],
      "name": "Approval",
      "type": "event"
    },
    {
      "anonymous": false,
      "inputs": [
        {
          "indexed": true,
          "internalType": "address",
          "name": "owner",
          "type": "address"
        },
        {
          "indexed": true,
          "internalType": "address",
          "name": "operator",
          "type": "address"
        },
        {
          "indexed": false,
          "internalType": "bool",
          "name": "approved",
          "type": "bool"
        }
      ],
      "name": "ApprovalForAll",
      "type": "event"
    },
    {
      "anonymous": false,
      "inputs": [
        {
          "indexed": false,
          "internalType": "uint256",
          "name": "_fromTokenId",
          "type": "uint256"
        },
        {
          "indexed": false,
          "internalType": "uint256",
          "name": "_toTokenId",
          "type": "uint256"
        }
      ],
      "name": "BatchMetadataUpdate",
      "type": "event"
    },
    {
      "anonymous": false,
      "inputs": [
        {
          "indexed": false,
          "internalType": "uint256",
          "name": "_tokenId",
          "type": "uint256"
        }
      ],
      "name": "MetadataUpdate",
      "type": "event"
    },
    {
      "anonymous": false,
      "inputs": [
        {
          "indexed": true,
          "internalType": "address",
          "name": "previousOwner",
          "type": "address"
        },
        {
          "indexed": true,
          "internalType": "address",
          "name": "newOwner",
          "type": "address"
        }
      ],
      "name": "OwnershipTransferred",
      "type": "event"
    },
    {
      "anonymous": false,
      "inputs": [
        {
          "indexed": true,
          "internalType": "address",
          "name": "from",
          "type": "address"
        },
        {
          "indexed": true,
          "internalType": "address",
          "name": "to",
          "type": "address"
        },
        {
          "indexed": true,
          "internalType": "uint256",
          "name": "tokenId",
          "type": "uint256"
        }
      ],
      "name": "Transfer",
      "type": "event"
    },
    {
      "inputs": [
        {
          "internalType": "address",
          "name": "to",
          "type": "address"
        },
        {
          "internalType": "uint256",
          "name": "tokenId",
          "type": "uint256"
        }
      ],
      "name": "approve",
      "outputs": [],
      "stateMutability": "nonpayable",
      "type": "function"
    },
    {
      "inputs": [
        {
          "internalType": "address",
          "name": "owner",
          "type": "address"
        }
      ],
      "name": "balanceOf",
      "outputs": [
        {
          "internalType": "uint256",
          "name": "",
          "type": "uint256"
        }
      ],
      "stateMutability": "view",
      "type": "function"
    },
    {
      "inputs": [
        {
          "internalType": "uint256",
          "name": "",
          "type": "uint256"
        }
      ],
      "name": "creators",
      "outputs": [
        {
          "internalType": "address",
          "name": "",
          "type": "address"
        }
      ],
      "stateMutability": "view",
      "type": "function"
    },
    {
      "inputs": [
        {
          "internalType": "uint256",
          "name": "tokenId",
          "type": "uint256"
        }
      ],
      "name": "getApproved",
      "outputs": [
        {
          "internalType": "address",
          "name": "",
          "type": "address"
        }
      ],
      "stateMutability": "view",
      "type": "function"
    },
    {
      "inputs": [
        {
          "internalType": "address",
          "name": "owner",
          "type": "address"
        },
        {
          "internalType": "address",
          "name": "operator",
          "type": "address"
        }
      ],
      "name": "isApprovedForAll",
      "outputs": [
        {
          "internalType": "bool",
          "name": "",
          "type": "bool"
        }
      ],
      "stateMutability": "view",
      "type": "function"
    },
    {
      "inputs": [
        {
          "internalType": "address",
          "name": "to",
          "type": "address"
        },
        {
          "internalType": "string",
          "name": "tokenURI",
          "type": "string"
        }
      ],
      "name": "mint",
      "outputs": [
        {
          "internalType": "uint256",
          "name": "",
          "type": "uint256"
        }
      ],
      "stateMutability": "nonpayable",
      "type": "function"
    },
    {
      "inputs": [],
      "name": "name",
      "outputs": [
        {
          "internalType": "string",
          "name": "",
          "type": "string"
        }
      ],
      "stateMutability": "view",
      "type": "function"
    },
    {
      "inputs": [],
      "name": "nextTokenId",
      "outputs": [
        {
          "internalType": "uint256",
          "name": "",
          "type": "uint256"
        }
      ],
      "stateMutability": "view",
      "type": "function"
    },
    {
      "inputs": [],
      "name": "owner",
      "outputs": [
        {
          "internalType": "address",
          "name": "",
          "type": "address"
        }
      ],
      "stateMutability": "view",
      "type": "function"
    },
    {
      "inputs": [
        {
          "internalType": "uint256",
          "name": "tokenId",
          "type": "uint256"
        }
      ],
      "name": "ownerOf",
      "outputs": [
        {
          "internalType": "address",
          "name": "",
          "type": "address"
        }
      ],
      "stateMutability": "view",
      "type": "function"
    },
    {
      "inputs": [],
      "name": "renounceOwnership",
      "outputs": [],
      "stateMutability": "nonpayable",
      "type": "function"
    },
    {
      "inputs": [
        {
          "internalType": "address",
          "name": "from",
          "type": "address"
        },
        {
          "internalType": "address",
          "name": "to",
          "type": "address"
        },
        {
          "internalType": "uint256",
          "name": "tokenId",
          "type": "uint256"
        }
      ],
      "name": "safeTransferFrom",
      "outputs": [],
      "stateMutability": "nonpayable",
      "type": "function"
    },
    {
      "inputs": [
        {
          "internalType": "address",
          "name": "from",
          "type": "address"
        },
        {
          "internalType": "address",
          "name": "to",
          "type": "address"
        },
        {
          "internalType": "uint256",
          "name": "tokenId",
          "type": "uint256"
        },
        {
          "internalType": "bytes",
          "name": "data",
          "type": "bytes"
        }
      ],
      "name": "safeTransferFrom",
      "outputs": [],
      "stateMutability": "nonpayable",
      "type": "function"
    },
    {
      "inputs": [
        {
          "internalType": "address",
          "name": "operator",
          "type": "address"
        },
        {
          "internalType": "bool",
          "name": "approved",
          "type": "bool"
        }
      ],
      "name": "setApprovalForAll",
      "outputs": [],
      "stateMutability": "nonpayable",
      "type": "function"
    },
    {
      "inputs": [
        {
          "internalType": "bytes4",
          "name": "interfaceId",
          "type": "bytes4"
        }
      ],
      "name": "supportsInterface",
      "outputs": [
        {
          "internalType": "bool",
          "name": "",
          "type": "bool"
        }
      ],
      "stateMutability": "view",
      "type": "function"
    },
    {
      "inputs": [],
      "name": "symbol",
      "outputs": [
        {
          "internalType": "string",
          "name": "",
          "type": "string"
        }
      ],
      "stateMutability": "view",
      "type": "function"
    },
    {
      "inputs": [
        {
          "internalType": "uint256",
          "name": "tokenId",
          "type": "uint256"
        }
      ],
      "name": "tokenURI",
      "outputs": [
        {
          "internalType": "string",
          "name": "",
          "type": "string"
        }
      ],
      "stateMutability": "view",
      "type": "function"
    },
    {
      "inputs": [
        {
          "internalType": "address",
          "name": "from",
          "type": "address"
        },
        {
          "internalType": "address",
          "name": "to",
          "type": "address"
        },
        {
          "internalType": "uint256",
          "name": "tokenId",
          "type": "uint256"
        }
      ],
      "name": "transferFrom",
      "outputs": [],
      "stateMutability": "nonpayable",
      "type": "function"
    },
    {
      "inputs": [
        {
          "internalType": "address",
          "name": "newOwner",
          "type": "address"
        }
      ],
      "name": "transferOwnership",
      "outputs": [],
      "stateMutability": "nonpayable",
      "type": "function"
    }
  ],
  "bytecode": "0x60806040523480156200001157600080fd5b50336040518060400160405280600781526020017f44656d6f4e4654000000000000000000000000000000000000000000000000008152506040518060400160405280600481526020017f444e465400000000000000000000000000000000000000000000000000000000815250816000908162000090919062000472565b508060019081620000a2919062000472565b505050600073ffffffffffffffffffffffffffffffffffffffff168173ffffffffffffffffffffffffffffffffffffffff16036200011a5760006040517f1e4fbdf70000000000000000000000000000000000000000000000000000000081526004016200011191906200059e565b60405180910390fd5b6200012b816200013260201b60201c565b50620005bb565b6000600760009054906101000a900473ffffffffffffffffffffffffffffffffffffffff16905081600760006101000a81548173ffffffffffffffffffffffffffffffffffffffff021916908373ffffffffffffffffffffffffffffffffffffffff1602179055508173ffffffffffffffffffffffffffffffffffffffff168173ffffffffffffffffffffffffffffffffffffffff167f8be0079c531659141344cd1fd0a4f28419497f9722a3daafe3b4186f6b6457e060405160405180910390a35050565b600081519050919050565b7f4e487b7100000000000000000000000000000000000000000000000000000000600052604160045260246000fd5b7f4e487b7100000000000000000000000000000000000000000000000000000000600052602260045260246000fd5b600060028204905060018216806200027a57607f821691505b60208210810362000290576200028f62000232565b5b50919050565b60008190508160005260206000209050919050565b60006020601f8301049050919050565b600082821b905092915050565b600060088302620002fa7fffffffffffffffffffffffffffffffffffffffffffffffffffffffffffffffff82620002bb565b620003068683620002bb565b95508019841693508086168417925050509392505050565b6000819050919050565b6000819050919050565b6000620003536200034d62000347846200031e565b62000328565b6200031e565b9050919050565b6000819050919050565b6200036f8362000332565b620003876200037e826200035a565b848454620002c8565b825550505050565b600090565b6200039e6200038f565b620003ab81848462000364565b505050565b5b81811015620003d357620003c760008262000394565b600181019050620003b1565b5050565b601f8211156200042257620003ec8162000296565b620003f784620002ab565b8101602085101562000407578190505b6200041f6200041685620002ab565b830182620003b0565b50505b505050565b600082821c905092915050565b6000620004476000198460080262000427565b1980831691505092915050565b600062000462838362000434565b9150826002028217905092915050565b6200047d82620001f8565b67ffffffffffffffff81111562000499576200049862000203565b5b620004a5825462000261565b620004b2828285620003d7565b600060209050601f831160018114620004ea5760008415620004d5578287015190505b620004e1858262000454565b86555062000551565b601f198416620004fa8662000296565b60005b828110156200052457848901518255600182019150602085019450602081019050620004fd565b8683101562000544578489015162000540601f89168262000434565b8355505b6001600288020188555050505b505050505050565b600073ffffffffffffffffffffffffffffffffffffffff82169050919050565b6000620005868262000559565b9050919050565b620005988162000579565b82525050565b6000602082019050620005b560008301846200058d565b92915050565b61276380620005cb6000396000f3fe608060405234801561001057600080fd5b50600436106101215760003560e01c806375794a3c116100ad578063c87b56dd11610071578063c87b56dd146102f4578063cd53d08e14610324578063d0def52114610354578063e985e9c514610384578063f2fde38b146103b457610121565b806375794a3c146102625780638da5cb5b1461028057806395d89b411461029e578063a22cb465146102bc578063b88d4fde146102d857610121565b806323b872dd116100f457806323b872dd146101c057806342842e0e146101dc5780636352211e146101f857806370a0823114610228578063715018a61461025857610121565b806301ffc9a71461012657806306fdde0314610156578063081812fc14610174578063095ea7b3146101a4575b600080fd5b610140600480360381019061013b9190611bbb565b6103d0565b60405161014d9190611c03565b60405180910390f35b61015e610431565b60405161016b9190611cae565b60405180910390f35b61018e60048036038101906101899190611d06565b6104c3565b60405161019b9190611d74565b60405180910390f35b6101be60048036038101906101b99190611dbb565b6104df565b005b6101da60048036038101906101d59190611dfb565b6104f5565b005b6101f660048036038101906101f19190611dfb565b6105f7565b005b610212600480360381019061020d9190611d06565b610617565b60405161021f9190611d74565b60405180910390f35b610242600480360381019061023d9190611e4e565b610629565b60405161024f9190611e8a565b60405180910390f35b6102606106e3565b005b61026a6106f7565b6040516102779190611e8a565b60405180910390f35b6102886106fd565b6040516102959190611d74565b60405180910390f35b6102a6610727565b6040516102b39190611cae565b60405180910390f35b6102d660048036038101906102d19190611ed1565b6107b9565b005b6102f260048036038101906102ed9190612046565b6107cf565b005b61030e60048036038101906103099190611d06565b6107f4565b60405161031b9190611cae565b60405180910390f35b61033e60048036038101906103399190611d06565b610907565b60405161034b9190611d74565b60405180910390f35b61036e6004803603810190610369919061216a565b61093a565b60405161037b9190611e8a565b60405180910390f35b61039e600480360381019061039991906121c6565b6109c4565b6040516103ab9190611c03565b60405180910390f35b6103ce60048036038101906103c99190611e4e565b610a58565b005b6000634906490660e01b7bffffffffffffffffffffffffffffffffffffffffffffffffffffffff1916827bffffffffffffffffffffffffffffffffffffffffffffffffffffffff1916148061042a575061042982610ade565b5b9050919050565b60606000805461044090612235565b80601f016020809104026020016040519081016040528092919081815260200182805461046c90612235565b80156104b95780601f1061048e576101008083540402835291602001916104b9565b820191906000526020600020905b81548152906001019060200180831161049c57829003601f168201915b5050505050905090565b60006104ce82610bc0565b506104d882610c48565b9050919050565b6104f182826104ec610c85565b610c8d565b5050565b600073ffffffffffffffffffffffffffffffffffffffff168273ffffffffffffffffffffffffffffffffffffffff16036105675760006040517f64a0ae9200000000000000000000000000000000000000000000000000000000815260040161055e9190611d74565b60405180910390fd5b600061057b8383610576610c85565b610c9f565b90508373ffffffffffffffffffffffffffffffffffffffff168173ffffffffffffffffffffffffffffffffffffffff16146105f1578382826040517f64283d7b0000000000000000000000000000000000000000000000000000000081526004016105e893929190612266565b60405180910390fd5b50505050565b610612838383604051806020016040528060008152506107cf565b505050565b600061062282610bc0565b9050919050565b60008073ffffffffffffffffffffffffffffffffffffffff168273ffffffffffffffffffffffffffffffffffffffff160361069c5760006040517f89c62b640000000000000000000000000000000000000000000000000000000081526004016106939190611d74565b60405180910390fd5b600360008373ffffffffffffffffffffffffffffffffffffffff1673ffffffffffffffffffffffffffffffffffffffff168152602001908152602001600020549050919050565b6106eb610eb9565b6106f56000610f40565b565b60085481565b6000600760009054906101000a900473ffffffffffffffffffffffffffffffffffffffff16905090565b60606001805461073690612235565b80601f016020809104026020016040519081016040528092919081815260200182805461076290612235565b80156107af5780601f10610784576101008083540402835291602001916107af565b820191906000526020600020905b81548152906001019060200180831161079257829003601f168201915b5050505050905090565b6107cb6107c4610c85565b8383611006565b5050565b6107da8484846104f5565b6107ee6107e5610c85565b85858585611175565b50505050565b60606107ff82610bc0565b50600060066000848152602001908152602001600020805461082090612235565b80601f016020809104026020016040519081016040528092919081815260200182805461084c90612235565b80156108995780601f1061086e57610100808354040283529160200191610899565b820191906000526020600020905b81548152906001019060200180831161087c57829003601f168201915b5050505050905060006108aa611326565b905060008151036108bf578192505050610902565b6000825111156108f45780826040516020016108dc9291906122d9565b60405160208183030381529060405292505050610902565b6108fd8461133d565b925050505b919050565b60096020528060005260406000206000915054906101000a900473ffffffffffffffffffffffffffffffffffffffff1681565b60008060086000815461094c9061232c565b919050819055905061095e84826113a6565b61096881846113c4565b336009600083815260200190815260200160002060006101000a81548173ffffffffffffffffffffffffffffffffffffffff021916908373ffffffffffffffffffffffffffffffffffffffff1602179055508091505092915050565b6000600560008473ffffffffffffffffffffffffffffffffffffffff1673ffffffffffffffffffffffffffffffffffffffff16815260200190815260200160002060008373ffffffffffffffffffffffffffffffffffffffff1673ffffffffffffffffffffffffffffffffffffffff16815260200190815260200160002060009054906101000a900460ff16905092915050565b610a60610eb9565b600073ffffffffffffffffffffffffffffffffffffffff168173ffffffffffffffffffffffffffffffffffffffff1603610ad25760006040517f1e4fbdf7000000000000000000000000000000000000000000000000000000008152600401610ac99190611d74565b60405180910390fd5b610adb81610f40565b50565b60007f80ac58cd000000000000000000000000000000000000000000000000000000007bffffffffffffffffffffffffffffffffffffffffffffffffffffffff1916827bffffffffffffffffffffffffffffffffffffffffffffffffffffffff19161480610ba957507f5b5e139f000000000000000000000000000000000000000000000000000000007bffffffffffffffffffffffffffffffffffffffffffffffffffffffff1916827bffffffffffffffffffffffffffffffffffffffffffffffffffffffff1916145b80610bb95750610bb882611420565b5b9050919050565b600080610bcc8361148a565b9050600073ffffffffffffffffffffffffffffffffffffffff168173ffffffffffffffffffffffffffffffffffffffff1603610c3f57826040517f7e273289000000000000000000000000000000000000000000000000000000008152600401610c369190611e8a565b60405180910390fd5b80915050919050565b60006004600083815260200190815260200160002060009054906101000a900473ffffffffffffffffffffffffffffffffffffffff169050919050565b600033905090565b610c9a83838360016114c7565b505050565b600080610cab8461148a565b9050600073ffffffffffffffffffffffffffffffffffffffff168373ffffffffffffffffffffffffffffffffffffffff1614610ced57610cec81848661168c565b5b600073ffffffffffffffffffffffffffffffffffffffff168173ffffffffffffffffffffffffffffffffffffffff1614610d7e57610d2f6000856000806114c7565b6001600360008373ffffffffffffffffffffffffffffffffffffffff1673ffffffffffffffffffffffffffffffffffffffff168152602001908152602001600020600082825403925050819055505b600073ffffffffffffffffffffffffffffffffffffffff168573ffffffffffffffffffffffffffffffffffffffff1614610e01576001600360008773ffffffffffffffffffffffffffffffffffffffff1673ffffffffffffffffffffffffffffffffffffffff168152602001908152602001600020600082825401925050819055505b846002600086815260200190815260200160002060006101000a81548173ffffffffffffffffffffffffffffffffffffffff021916908373ffffffffffffffffffffffffffffffffffffffff160217905550838573ffffffffffffffffffffffffffffffffffffffff168273ffffffffffffffffffffffffffffffffffffffff167fddf252ad1be2c89b69c2b068fc378daa952ba7f163c4a11628f55a4df523b3ef60405160405180910390a4809150509392505050565b610ec1610c85565b73ffffffffffffffffffffffffffffffffffffffff16610edf6106fd565b73ffffffffffffffffffffffffffffffffffffffff1614610f3e57610f02610c85565b6040517f118cdaa7000000000000000000000000000000000000000000000000000000008152600401610f359190611d74565b60405180910390fd5b565b6000600760009054906101000a900473ffffffffffffffffffffffffffffffffffffffff16905081600760006101000a81548173ffffffffffffffffffffffffffffffffffffffff021916908373ffffffffffffffffffffffffffffffffffffffff1602179055508173ffffffffffffffffffffffffffffffffffffffff168173ffffffffffffffffffffffffffffffffffffffff167f8be0079c531659141344cd1fd0a4f28419497f9722a3daafe3b4186f6b6457e060405160405180910390a35050565b600073ffffffffffffffffffffffffffffffffffffffff168273ffffffffffffffffffffffffffffffffffffffff160361107757816040517f5b08ba1800000000000000000000000000000000000000000000000000000000815260040161106e9190611d74565b60405180910390fd5b80600560008573ffffffffffffffffffffffffffffffffffffffff1673ffffffffffffffffffffffffffffffffffffffff16815260200190815260200160002060008473ffffffffffffffffffffffffffffffffffffffff1673ffffffffffffffffffffffffffffffffffffffff16815260200190815260200160002060006101000a81548160ff0219169083151502179055508173ffffffffffffffffffffffffffffffffffffffff168373ffffffffffffffffffffffffffffffffffffffff167f17307eab39ab6107e8899845ad3d59bd9653f200f220920489ca2b5937696c31836040516111689190611c03565b60405180910390a3505050565b60008373ffffffffffffffffffffffffffffffffffffffff163b111561131f578273ffffffffffffffffffffffffffffffffffffffff1663150b7a02868685856040518563ffffffff1660e01b81526004016111d494939291906123c9565b6020604051808303816000875af192505050801561121057506040513d601f19601f8201168201806040525081019061120d919061242a565b60015b611294573d8060008114611240576040519150601f19603f3d011682016040523d82523d6000602084013e611245565b606091505b50600081510361128c57836040517f64a0ae920000000000000000000000000000000000000000000000000000000081526004016112839190611d74565b60405180910390fd5b805160208201fd5b63150b7a0260e01b7bffffffffffffffffffffffffffffffffffffffffffffffffffffffff1916817bffffffffffffffffffffffffffffffffffffffffffffffffffffffff19161461131d57836040517f64a0ae920000000000000000000000000000000000000000000000000000000081526004016113149190611d74565b60405180910390fd5b505b5050505050565b606060405180602001604052806000815250905090565b606061134882610bc0565b506000611353611326565b90506000815111611373576040518060200160405280600081525061139e565b8061137d84611750565b60405160200161138e9291906122d9565b6040516020818303038152906040525b915050919050565b6113c082826040518060200160405280600081525061181e565b5050565b806006600084815260200190815260200160002090816113e49190612603565b507ff8e1a15aba9398e019f0b49df1a4fde98ee17ae345cb5f6b5e2c27f5033e8ce7826040516114149190611e8a565b60405180910390a15050565b60007f01ffc9a7000000000000000000000000000000000000000000000000000000007bffffffffffffffffffffffffffffffffffffffffffffffffffffffff1916827bffffffffffffffffffffffffffffffffffffffffffffffffffffffff1916149050919050565b60006002600083815260200190815260200160002060009054906101000a900473ffffffffffffffffffffffffffffffffffffffff169050919050565b80806115005750600073ffffffffffffffffffffffffffffffffffffffff168273ffffffffffffffffffffffffffffffffffffffff1614155b1561163457600061151084610bc0565b9050600073ffffffffffffffffffffffffffffffffffffffff168373ffffffffffffffffffffffffffffffffffffffff161415801561157b57508273ffffffffffffffffffffffffffffffffffffffff168173ffffffffffffffffffffffffffffffffffffffff1614155b801561158e575061158c81846109c4565b155b156115d057826040517fa9fbf51f0000000000000000000000000000000000000000000000000000000081526004016115c79190611d74565b60405180910390fd5b811561163257838573ffffffffffffffffffffffffffffffffffffffff168273ffffffffffffffffffffffffffffffffffffffff167f8c5be1e5ebec7d5bd14f71427d1e84f3dd0314c0f7b2291e5b200ac8c7c3b92560405160405180910390a45b505b836004600085815260200190815260200160002060006101000a81548173ffffffffffffffffffffffffffffffffffffffff021916908373ffffffffffffffffffffffffffffffffffffffff16021790555050505050565b611697838383611842565b61174b57600073ffffffffffffffffffffffffffffffffffffffff168373ffffffffffffffffffffffffffffffffffffffff160361170c57806040517f7e2732890000000000000000000000000000000000000000000000000000000081526004016117039190611e8a565b60405180910390fd5b81816040517f177e802f0000000000000000000000000000000000000000000000000000000081526004016117429291906126d5565b60405180910390fd5b505050565b60606000600161175f84611903565b01905060008167ffffffffffffffff81111561177e5761177d611f1b565b5b6040519080825280601f01601f1916602001820160405280156117b05781602001600182028036833780820191505090505b509050600082602083010190505b600115611813578080600190039150507f3031323334353637383961626364656600000000000000000000000000000000600a86061a8153600a8581611807576118066126fe565b5b049450600085036117be575b819350505050919050565b6118288383611a56565b61183d611833610c85565b6000858585611175565b505050565b60008073ffffffffffffffffffffffffffffffffffffffff168373ffffffffffffffffffffffffffffffffffffffff16141580156118fa57508273ffffffffffffffffffffffffffffffffffffffff168473ffffffffffffffffffffffffffffffffffffffff1614806118bb57506118ba84846109c4565b5b806118f957508273ffffffffffffffffffffffffffffffffffffffff166118e183610c48565b73ffffffffffffffffffffffffffffffffffffffff16145b5b90509392505050565b600080600090507a184f03e93ff9f4daa797ed6e38ed64bf6a1f0100000000000000008310611961577a184f03e93ff9f4daa797ed6e38ed64bf6a1f0100000000000000008381611957576119566126fe565b5b0492506040810190505b6d04ee2d6d415b85acef8100000000831061199e576d04ee2d6d415b85acef81000000008381611994576119936126fe565b5b0492506020810190505b662386f26fc1000083106119cd57662386f26fc1000083816119c3576119c26126fe565b5b0492506010810190505b6305f5e10083106119f6576305f5e10083816119ec576119eb6126fe565b5b0492506008810190505b6127108310611a1b576127108381611a1157611a106126fe565b5b0492506004810190505b60648310611a3e5760648381611a3457611a336126fe565b5b0492506002810190505b600a8310611a4d576001810190505b80915050919050565b600073ffffffffffffffffffffffffffffffffffffffff168273ffffffffffffffffffffffffffffffffffffffff1603611ac85760006040517f64a0ae92000000000000000000000000000000000000000000000000000000008152600401611abf9190611d74565b60405180910390fd5b6000611ad683836000610c9f565b9050600073ffffffffffffffffffffffffffffffffffffffff168173ffffffffffffffffffffffffffffffffffffffff1614611b4a5760006040517f73c6ac6e000000000000000000000000000000000000000000000000000000008152600401611b419190611d74565b60405180910390fd5b505050565b6000604051905090565b600080fd5b600080fd5b60007fffffffff0000000000000000000000000000000000000000000000000000000082169050919050565b611b9881611b63565b8114611ba357600080fd5b50565b600081359050611bb581611b8f565b92915050565b600060208284031215611bd157611bd0611b59565b5b6000611bdf84828501611ba6565b91505092915050565b60008115159050919050565b611bfd81611be8565b82525050565b6000602082019050611c186000830184611bf4565b92915050565b600081519050919050565b600082825260208201905092915050565b60005b83811015611c58578082015181840152602081019050611c3d565b60008484015250505050565b6000601f19601f8301169050919050565b6000611c8082611c1e565b611c8a8185611c29565b9350611c9a818560208601611c3a565b611ca381611c64565b840191505092915050565b60006020820190508181036000830152611cc88184611c75565b905092915050565b6000819050919050565b611ce381611cd0565b8114611cee57600080fd5b50565b600081359050611d0081611cda565b92915050565b600060208284031215611d1c57611d1b611b59565b5b6000611d2a84828501611cf1565b91505092915050565b600073ffffffffffffffffffffffffffffffffffffffff82169050919050565b6000611d5e82611d33565b9050919050565b611d6e81611d53565b82525050565b6000602082019050611d896000830184611d65565b92915050565b611d9881611d53565b8114611da357600080fd5b50565b600081359050611db581611d8f565b92915050565b60008060408385031215611dd257611dd1611b59565b5b6000611de085828601611da6565b9250506020611df185828601611cf1565b9150509250929050565b600080600060608486031215611e1457611e13611b59565b5b6000611e2286828701611da6565b9350506020611e3386828701611da6565b9250506040611e4486828701611cf1565b9150509250925092565b600060208284031215611e6457611e63611b59565b5b6000611e7284828501611da6565b91505092915050565b611e8481611cd0565b82525050565b6000602082019050611e9f6000830184611e7b565b92915050565b611eae81611be8565b8114611eb957600080fd5b50565b600081359050611ecb81611ea5565b92915050565b60008060408385031215611ee857611ee7611b59565b5b6000611ef685828601611da6565b9250506020611f0785828601611ebc565b9150509250929050565b600080fd5b600080fd5b7f4e487b7100000000000000000000000000000000000000000000000000000000600052604160045260246000fd5b611f5382611c64565b810181811067ffffffffffffffff82111715611f7257611f71611f1b565b5b80604052505050565b6000611f85611b4f565b9050611f918282611f4a565b919050565b600067ffffffffffffffff821115611fb157611fb0611f1b565b5b611fba82611c64565b9050602081019050919050565b82818337600083830152505050565b6000611fe9611fe484611f96565b611f7b565b90508281526020810184848401111561200557612004611f16565b5b612010848285611fc7565b509392505050565b600082601f83011261202d5761202c611f11565b5b813561203d848260208601611fd6565b91505092915050565b600080600080608085870312156120605761205f611b59565b5b600061206e87828801611da6565b945050602061207f87828801611da6565b935050604061209087828801611cf1565b925050606085013567ffffffffffffffff8111156120b1576120b0611b5e565b5b6120bd87828801612018565b91505092959194509250565b600067ffffffffffffffff8211156120e4576120e3611f1b565b5b6120ed82611c64565b9050602081019050919050565b600061210d612108846120c9565b611f7b565b90508281526020810184848401111561212957612128611f16565b5b612134848285611fc7565b509392505050565b600082601f83011261215157612150611f11565b5b81356121618482602086016120fa565b91505092915050565b6000806040838503121561218157612180611b59565b5b600061218f85828601611da6565b925050602083013567ffffffffffffffff8111156121b0576121af611b5e565b5b6121bc8582860161213c565b9150509250929050565b600080604083850312156121dd576121dc611b59565b5b60006121eb85828601611da6565b92505060206121fc85828601611da6565b9150509250929050565b7f4e487b7100000000000000000000000000000000000000000000000000000000600052602260045260246000fd5b6000600282049050600182168061224d57607f821691505b6020821081036122605761225f612206565b5b50919050565b600060608201905061227b6000830186611d65565b6122886020830185611e7b565b6122956040830184611d65565b949350505050565b600081905092915050565b60006122b382611c1e565b6122bd818561229d565b93506122cd818560208601611c3a565b80840191505092915050565b60006122e582856122a8565b91506122f182846122a8565b91508190509392505050565b7f4e487b7100000000000000000000000000000000000000000000000000000000600052601160045260246000fd5b600061233782611cd0565b91507fffffffffffffffffffffffffffffffffffffffffffffffffffffffffffffffff8203612369576123686122fd565b5b600182019050919050565b600081519050919050565b600082825260208201905092915050565b600061239b82612374565b6123a5818561237f565b93506123b5818560208601611c3a565b6123be81611c64565b840191505092915050565b60006080820190506123de6000830187611d65565b6123eb6020830186611d65565b6123f86040830185611e7b565b818103606083015261240a8184612390565b905095945050505050565b60008151905061242481611b8f565b92915050565b6000602082840312156124405761243f611b59565b5b600061244e84828501612415565b91505092915050565b60008190508160005260206000209050919050565b60006020601f8301049050919050565b600082821b905092915050565b6000600883026124b97fffffffffffffffffffffffffffffffffffffffffffffffffffffffffffffffff8261247c565b6124c3868361247c565b95508019841693508086168417925050509392505050565b6000819050919050565b60006125006124fb6124f684611cd0565b6124db565b611cd0565b9050919050565b6000819050919050565b61251a836124e5565b61252e61252682612507565b848454612489565b825550505050565b600090565b612543612536565b61254e818484612511565b505050565b5b818110156125725761256760008261253b565b600181019050612554565b5050565b601f8211156125b75761258881612457565b6125918461246c565b810160208510156125a0578190505b6125b46125ac8561246c565b830182612553565b50505b505050565b600082821c905092915050565b60006125da600019846008026125bc565b1980831691505092915050565b60006125f383836125c9565b9150826002028217905092915050565b61260c82611c1e565b67ffffffffffffffff81111561262557612624611f1b565b5b61262f8254612235565b61263a828285612576565b600060209050601f83116001811461266d576000841561265b578287015190505b61266585826125e7565b8655506126cd565b601f19841661267b86612457565b60005b828110156126a35784890151825560018201915060208501945060208101905061267e565b868310156126c057848901516126bc601f8916826125c9565b8355505b6001600288020188555050505b505050505050565b60006040820190506126ea6000830185611d65565b6126f76020830184611e7b565b9392505050565b7f4e487b7100000000000000000000000000000000000000000000000000000000600052601260045260246000fdfea2646970667358221220f47f90cb0148af599686c0a8993a14134a6548acc8985523b848c8cb46eaca4a64736f6c63430008140033",
  "linkReferences": {},
  "deployedLinkReferences": {}
}