{
  "_format": "hh-sol-artifact-1",
  "contractName": "Marketplace",
  "sourceName": "contracts/Marketplace.sol",
  "abi": [
    {
      "inputs": [],
      "name": "ReentrancyGuardReentrantCall",
      "type": "error"
    },
    {
      "anonymous": false,
      "inputs": [
        {
          "indexed": true,
          "internalType": "uint256",
          "name": "listingId",
          "type": "uint256"
        }
      ],
      "name": "Canceled",
      "type": "event"
    },
    {
      "anonymous": false,
      "inputs": [
        {
          "indexed": true,
          "internalType": "uint256",
          "name": "listingId",
          "type": "uint256"
        },
        {
          "indexed": true,
          "internalType": "address",
          "name": "seller",
          "type": "address"
        },
        {
          "indexed": true,
          "internalType": "address",
          "name": "nft",
          "type": "address"
        },
        {
          "indexed": false,
          "internalType": "uint256",
          "name": "tokenId",
          "type": "uint256"
        },
        {
          "indexed": false,
          "internalType": "uint256",
          "name": "price",
          "type": "uint256"
        }
      ],
      "name": "Listed",
      "type": "event"
    },
    {
      "anonymous": false,
      "inputs": [
        {
          "indexed": true,
          "internalType": "uint256",
          "name": "listingId",
          "type": "uint256"
        },
        {
          "indexed": true,
          "internalType": "address",
          "name": "buyer",
          "type": "address"
        }
      ],
      "name": "Sold",
      "type": "event"
    },
    {
      "inputs": [
        {
          "internalType": "uint256",
          "name": "listingId",
          "type": "uint256"
        }
      ],
      "name": "buy",
      "outputs": [],
      "stateMutability": "payable",
      "type": "function"
    },
    {
      "inputs": [
        {
          "internalType": "uint256",
          "name": "listingId",
          "type": "uint256"
        }
      ],
      "name": "cancel",
      "outputs": [],
      "stateMutability": "nonpayable",
      "type": "function"
    },
    {
      "inputs": [
        {
          "internalType": "address",
          "name": "nft",
          "type": "address"
        },
        {
          "internalType": "uint256",
          "name": "tokenId",
          "type": "uint256"
        },
        {
          "internalType": "uint256",
          "name": "price",
          "type": "uint256"
        }
      ],
      "name": "createListing",
      "outputs": [
        {
          "internalType": "uint256",
          "name": "",
          "type": "uint256"
        }
      ],
      "stateMutability": "nonpayable",
      "type": "function"
    },
    {
      "inputs": [],
      "name": "getActiveListings",
      "outputs": [
        {
          "internalType": "uint256[]",
          "name": "ids",
          "type": "uint256[]"
        },
        {
          "components": [
            {
              "internalType": "address",
              "name": "seller",
              "type": "address"
            },
            {
              "internalType": "address",
              "name": "nft",
              "type": "address"
            },
            {
              "internalType": "uint256",
              "name": "tokenId",
              "type": "uint256"
            },
            {
              "internalType": "uint256",
              "name": "price",
              "type": "uint256"
            },
            {
              "internalType": "bool",
              "name": "active",
              "type": "bool"
            }
          ],
          "internalType": "struct Marketplace.Listing[]",
          "name": "items",
          "type": "tuple[]"
        }
      ],
      "stateMutability": "view",
      "type": "function"
    },
    {
      "inputs": [
        {
          "internalType": "uint256",
          "name": "",
          "type": "uint256"
        }
      ],
      "name": "listings",
      "outputs": [
        {
          "internalType": "address",
          "name": "seller",
          "type": "address"
        },
        {
          "internalType": "address",
          "name": "nft",
          "type": "address"
        },
        {
          "internalType": "uint256",
          "name": "tokenId",
          "type": "uint256"
        },
        {
          "internalType": "uint256",
          "name": "price",
          "type": "uint256"
        },
        {
          "internalType": "bool",
          "name": "active",
          "type": "bool"
        }
      ],
      "stateMutability": "view",
      "type": "function"
    },
    {
      "inputs": [],
      "name": "nextListingId",
      "outputs": [
        {
          "internalType": "uint256",
          "name": "",
          "type": "uint256"
        }
      ],
      "stateMutability": "view",
      "type": "function"
    }
  ],
  "bytecode": "0x608060405234801561001057600080fd5b5060016000819055506112f3806100286000396000f3fe6080604052600436106100555760003560e01c806324780c561461005a57806340e58ee51461009757806387c35bc0146100c0578063aaccf1ec146100ec578063d96a094a14610117578063de74e57b14610133575b600080fd5b34801561006657600080fd5b50610081600480360381019061007c9190610c76565b610174565b60405161008e9190610cd8565b60405180910390f35b3480156100a357600080fd5b506100be60048036038101906100b99190610cf3565b6103f8565b005b3480156100cc57600080fd5b506100d56105e7565b6040516100e3929190610f1f565b60405180910390f35b3480156100f857600080fd5b50610101610882565b60405161010e9190610cd8565b60405180910390f35b610131600480360381019061012c9190610cf3565b610888565b005b34801561013f57600080fd5b5061015a60048036038101906101559190610cf3565b610aad565b60405161016b959493929190610f74565b60405180910390f35b600061017e610b30565b600082116101c1576040517f08c379a00000000000000000000000000000000000000000000000000000000081526004016101b890611024565b60405180910390fd5b60008490508073ffffffffffffffffffffffffffffffffffffffff166323b872dd3330876040518463ffffffff1660e01b815260040161020393929190611044565b600060405180830381600087803b15801561021d57600080fd5b505af1158015610231573d6000803e3d6000fd5b505050506000600160008154610246906110aa565b91905081905590506040518060a001604052803373ffffffffffffffffffffffffffffffffffffffff1681526020018773ffffffffffffffffffffffffffffffffffffffff168152602001868152602001858152602001600115158152506002600083815260200190815260200160002060008201518160000160006101000a81548173ffffffffffffffffffffffffffffffffffffffff021916908373ffffffffffffffffffffffffffffffffffffffff16021790555060208201518160010160006101000a81548173ffffffffffffffffffffffffffffffffffffffff021916908373ffffffffffffffffffffffffffffffffffffffff160217905550604082015181600201556060820151816003015560808201518160040160006101000a81548160ff0219169083151502179055509050508573ffffffffffffffffffffffffffffffffffffffff163373ffffffffffffffffffffffffffffffffffffffff16827f723f73331eaee88eec7fc68ef60ab6ed15e4b90d0472b55eb92fa43910bab6dd88886040516103dc9291906110f2565b60405180910390a480925050506103f1610b76565b9392505050565b610400610b30565b60006002600083815260200190815260200160002090508060040160009054906101000a900460ff16610468576040517f08c379a000000000000000000000000000000000000000000000000000000000815260040161045f90611167565b60405180910390fd5b3373ffffffffffffffffffffffffffffffffffffffff168160000160009054906101000a900473ffffffffffffffffffffffffffffffffffffffff1673ffffffffffffffffffffffffffffffffffffffff16146104fa576040517f08c379a00000000000000000000000000000000000000000000000000000000081526004016104f1906111d3565b60405180910390fd5b60008160040160006101000a81548160ff0219169083151502179055508060010160009054906101000a900473ffffffffffffffffffffffffffffffffffffffff1673ffffffffffffffffffffffffffffffffffffffff166323b872dd303384600201546040518463ffffffff1660e01b815260040161057c93929190611044565b600060405180830381600087803b15801561059657600080fd5b505af11580156105aa573d6000803e3d6000fd5b50505050817f829a8683c544ad289ce92d3ce06e9ebad69b18a6916e60ec766c2c217461d8e960405160405180910390a2506105e4610b76565b50565b606080600080600190505b6001548111610646576002600082815260200190815260200160002060040160009054906101000a900460ff161561063357818061062f906110aa565b9250505b808061063e906110aa565b9150506105f2565b508067ffffffffffffffff811115610661576106606111f3565b5b60405190808252806020026020018201604052801561068f5781602001602082028036833780820191505090505b5092508067ffffffffffffffff8111156106ac576106ab6111f3565b5b6040519080825280602002602001820160405280156106e557816020015b6106d2610b80565b8152602001906001900390816106ca5790505b509150600080600190505b600154811161087b576002600082815260200190815260200160002060040160009054906101000a900460ff1615610868578085838151811061073657610735611222565b5b602002602001018181525050600260008281526020019081526020016000206040518060a00160405290816000820160009054906101000a900473ffffffffffffffffffffffffffffffffffffffff1673ffffffffffffffffffffffffffffffffffffffff1673ffffffffffffffffffffffffffffffffffffffff1681526020016001820160009054906101000a900473ffffffffffffffffffffffffffffffffffffffff1673ffffffffffffffffffffffffffffffffffffffff1673ffffffffffffffffffffffffffffffffffffffff16815260200160028201548152602001600382015481526020016004820160009054906101000a900460ff16151515158152505084838151811061084e5761084d611222565b5b60200260200101819052508180610864906110aa565b9250505b8080610873906110aa565b9150506106f0565b5050509091565b60015481565b610890610b30565b60006002600083815260200190815260200160002090508060040160009054906101000a900460ff166108f8576040517f08c379a00000000000000000000000000000000000000000000000000000000081526004016108ef90611167565b60405180910390fd5b8060030154341461093e576040517f08c379a00000000000000000000000000000000000000000000000000000000081526004016109359061129d565b60405180910390fd5b60008160040160006101000a81548160ff0219169083151502179055508060000160009054906101000a900473ffffffffffffffffffffffffffffffffffffffff1673ffffffffffffffffffffffffffffffffffffffff166108fc349081150290604051600060405180830381858888f193505050501580156109c5573d6000803e3d6000fd5b508060010160009054906101000a900473ffffffffffffffffffffffffffffffffffffffff1673ffffffffffffffffffffffffffffffffffffffff166323b872dd303384600201546040518463ffffffff1660e01b8152600401610a2b93929190611044565b600060405180830381600087803b158015610a4557600080fd5b505af1158015610a59573d6000803e3d6000fd5b505050503373ffffffffffffffffffffffffffffffffffffffff16827fdc0971a41bd3cc3dec88e610438b1a9f0752975bbd80f195baf7b766c0aec03e60405160405180910390a350610aaa610b76565b50565b60026020528060005260406000206000915090508060000160009054906101000a900473ffffffffffffffffffffffffffffffffffffffff16908060010160009054906101000a900473ffffffffffffffffffffffffffffffffffffffff16908060020154908060030154908060040160009054906101000a900460ff16905085565b600260005403610b6c576040517f3ee5aeb500000000000000000000000000000000000000000000000000000000815260040160405180910390fd5b6002600081905550565b6001600081905550565b6040518060a00160405280600073ffffffffffffffffffffffffffffffffffffffff168152602001600073ffffffffffffffffffffffffffffffffffffffff16815260200160008152602001600081526020016000151581525090565b600080fd5b600073ffffffffffffffffffffffffffffffffffffffff82169050919050565b6000610c0d82610be2565b9050919050565b610c1d81610c02565b8114610c2857600080fd5b50565b600081359050610c3a81610c14565b92915050565b6000819050919050565b610c5381610c40565b8114610c5e57600080fd5b50565b600081359050610c7081610c4a565b92915050565b600080600060608486031215610c8f57610c8e610bdd565b5b6000610c9d86828701610c2b565b9350506020610cae86828701610c61565b9250506040610cbf86828701610c61565b9150509250925092565b610cd281610c40565b82525050565b6000602082019050610ced6000830184610cc9565b92915050565b600060208284031215610d0957610d08610bdd565b5b6000610d1784828501610c61565b91505092915050565b600081519050919050565b600082825260208201905092915050565b6000819050602082019050919050565b610d5581610c40565b82525050565b6000610d678383610d4c565b60208301905092915050565b6000602082019050919050565b6000610d8b82610d20565b610d958185610d2b565b9350610da083610d3c565b8060005b83811015610dd1578151610db88882610d5b565b9750610dc383610d73565b925050600181019050610da4565b5085935050505092915050565b600081519050919050565b600082825260208201905092915050565b6000819050602082019050919050565b610e1381610c02565b82525050565b60008115159050919050565b610e2e81610e19565b82525050565b60a082016000820151610e4a6000850182610e0a565b506020820151610e5d6020850182610e0a565b506040820151610e706040850182610d4c565b506060820151610e836060850182610d4c565b506080820151610e966080850182610e25565b50505050565b6000610ea88383610e34565b60a08301905092915050565b6000602082019050919050565b6000610ecc82610dde565b610ed68185610de9565b9350610ee183610dfa565b8060005b83811015610f12578151610ef98882610e9c565b9750610f0483610eb4565b925050600181019050610ee5565b5085935050505092915050565b60006040820190508181036000830152610f398185610d80565b90508181036020830152610f4d8184610ec1565b90509392505050565b610f5f81610c02565b82525050565b610f6e81610e19565b82525050565b600060a082019050610f896000830188610f56565b610f966020830187610f56565b610fa36040830186610cc9565b610fb06060830185610cc9565b610fbd6080830184610f65565b9695505050505050565b600082825260208201905092915050565b7f7072696365203d20300000000000000000000000000000000000000000000000600082015250565b600061100e600983610fc7565b915061101982610fd8565b602082019050919050565b6000602082019050818103600083015261103d81611001565b9050919050565b60006060820190506110596000830186610f56565b6110666020830185610f56565b6110736040830184610cc9565b949350505050565b7f4e487b7100000000000000000000000000000000000000000000000000000000600052601160045260246000fd5b60006110b582610c40565b91507fffffffffffffffffffffffffffffffffffffffffffffffffffffffffffffffff82036110e7576110e661107b565b5b600182019050919050565b60006040820190506111076000830185610cc9565b6111146020830184610cc9565b9392505050565b7f696e616374697665000000000000000000000000000000000000000000000000600082015250565b6000611151600883610fc7565b915061115c8261111b565b602082019050919050565b6000602082019050818103600083015261118081611144565b9050919050565b7f6e6f742073656c6c657200000000000000000000000000000000000000000000600082015250565b60006111bd600a83610fc7565b91506111c882611187565b602082019050919050565b600060208201905081810360008301526111ec816111b0565b9050919050565b7f4e487b7100000000000000000000000000000000000000000000000000000000600052604160045260246000fd5b7f4e487b7100000000000000000000000000000000000000000000000000000000600052603260045260246000fd5b7f6261642070726963650000000000000000000000000000000000000000000000600082015250565b6000611287600983610fc7565b915061129282611251565b602082019050919050565b600060208201905081810360008301526112b68161127a565b905091905056fea2646970667358221220c904b7950733bf9537b0ae2d580227de855f73306ea82eb8d486c28213dee38864736f6c63430008140033",
  "linkReferences": {},
  "deployedLinkReferences": {}
}